:100000000C9412060C9480170C9459170C943A0611
:100010000C943A060C943A060C943A060C943A0660
:100020000C943A060C943A060C943A060C943A0650
:100030000C943A060C943A060C943A060C943A0640
:100040000C940F170C943A060C94CD170C94A71728
:100050000C943A060C943A060C943A060C943A0620
:100060000C94FF170C943A0607634236B79BD8A747
:100070001A39685618AEBAAB558C1D3CB7CC5763CD
:10008000BD6DEDFD753EF6177231BF000000803F7B
:1000900008000000BE922449123EABAAAA2ABECD97
:1000A000CCCC4C3E00000080BEABAAAAAA3E000009
:1000B0000000BF000000803F000000000008417801
:1000C000D3BB4387D1133D190E3CC3BD4282AD2B38
:1000D0003E68EC8276BED98FE1A93E4C80EFFFBE30
:1000E00001C4FF7F3F000000000000407A10F35A77
:1000F00000A0724E18090010A5D4E80000E8764868
:10010000170000E40B54020000CA9A3B000000E113
:10011000F505000080969800000040420F000000A6
:10012000A08601000000102700000000E803000086
:1001300000006400000000000A0000000000010050
:10014000000000002C76D888DC674F0823DFC1DF71
:10015000AE59E1B1B796E5E3E453C63AE651997674
:1001600096E8E6C28426EB898C9B62ED407C6FFCAE
:10017000EFBC9C9F40F2BAA56FA5F490055A2AF7F0
:100180005C936B6CF9676DC11BFCE0E40D47FEF5F9
:1001900020E6B500D0ED902E030094357705008061
:1001A000841E080000204E0A000000C80C333333C0
:1001B000330F986E12831141EF8D2114893BE65560
:1001C00016CFFEE6DB18D1844B381BF77C1D901D43
:1001D000A4BBE424203284725E228100C9F124ECA5
:1001E000A1E53D2700000000003E5B4F5B3E3E6BFB
:1001F0004F6B3E1C3E7C3E1C183C7E3C181C577DC1
:10020000571C1C5E7F5E1C00183C1800FFE7C3E70C
:10021000FF0018241800FFE7DBE7FF30483A060E1E
:100220002629792926407F050507407F05253F5A65
:100230003CE73C5A7F3E1C1C08081C1C3E7F1422D5
:100240007F22145F5F005F5F06097F017F00668980
:10025000956A606060606094A2FFA29408047E04C6
:100260000810207E201008082A1C08081C2A0808EC
:100270001E101010100C1E0C1E0C30383E383006AC
:100280000E3E0E06000000000000005F00000007A8
:10029000000700147F147F14242A7F2A12231308D6
:1002A000646236495620500008070300001C2241B2
:1002B000000041221C002A1C7F1C2A08083E080856
:1002C0000080703000080808080800006060002006
:1002D000100804023E5149453E00427F40007249E9
:1002E0004949462141494D331814127F102745458D
:1002F00045393C4A494931412111090736494949A3
:1003000036464949291E0000140000004034000010
:100310000008142241141414141400412214080279
:10032000015909063E415D594E7C1211127C7F49EC
:100330004949363E414141227F4141413E7F494941
:1003400049417F090909013E414151737F0808086D
:100350007F00417F41002040413F017F081422413E
:100360007F404040407F021C027F7F0408107F3E98
:100370004141413E7F090909063E4151215E7F0905
:10038000192946264949493203017F01033F40406C
:10039000403F1F2040201F3F4038403F6314081457
:1003A0006303047804036159494D43007F4141418F
:1003B0000204081020004141417F04020102044070
:1003C00040404040000307080020545478407F28F4
:1003D0004444383844444428384444287F385454EA
:1003E000541800087E090218A4A49C787F0804040D
:1003F0007800447D40002040403D007F10284400AC
:1004000000417F40007C047804787C08040478383C
:1004100044444438FC1824241818242418FC7C086C
:10042000040408485454542404043F44243C4040E9
:10043000207C1C2040201C3C4030403C442810289C
:10044000444C9090907C4464544C440008364100E5
:100450000000770000004136080002010204023C5F
:100460002623263C1EA1A161123A4040207A38542E
:1004700054555921555579412254547842215554A7
:10048000784020545579400C1E52721239555555FA
:1004900059395454545939555454580000457C41E5
:1004A0000002457D420001457C407D1211127DF025
:1004B000282528F07C545545002054547C547C0A4F
:1004C000097F4932494949323A4444443A324A4818
:1004D00048303A4141217A3A42402078009DA0A01C
:1004E0007D3D4242423D3D4040403D3C24FF24246E
:1004F000487E4943662B2FFC2F2BFF0929F620C08D
:10050000887E090320545479410000447D413048DD
:10051000484A32384040227A007A0A0A727D0D1920
:10052000317D2629292F28262929292630484D4082
:1005300020380808080808080808382F10C8ACBA7E
:100540002F102834FA00007B000008142A142222FD
:10055000142A14085500550055AA55AA55AAFF5546
:10056000FF55FF000000FF00101010FF00141414CE
:10057000FF001010FF00FF1010F010F0141414FC16
:10058000001414F700FF0000FF00FF1414F404FC33
:10059000141417101F10101F101F1414141F001014
:1005A0001010F0000000001F101010101F1010108D
:1005B00010F010000000FF1010101010101010109C
:1005C000FF10000000FF140000FF00FF00001F10DC
:1005D000170000FC04F414141710171414F404F496
:1005E0000000FF00F714141414141414F700F71487
:1005F0001414171410101F101F141414F4141010D6
:10060000F010F000001F101F0000001F1400000079
:10061000FC140000F010F01010FF10FF141414FF71
:10062000141010101F00000000F010FFFFFFFFFF6C
:10063000F0F0F0F0F0FFFFFF0000000000FFFF0F00
:100640000F0F0F0F3844443844FC4A4A4A347E02A4
:10065000020606027E027E02635549416338444425
:100660003C04407E201E2006027E020299A5E7A5DA
:10067000991C2A492A1C4C7201724C304A4D4D304B
:100680003048784830BC625A463D3E494949007E70
:100690000101017E2A2A2A2A2A44445F4444405107
:1006A0004A444040444A51400000FF0103E080FFBB
:1006B000000008086B6B083612362436060F090F47
:1006C00006000018180000001010003040FF010163
:1006D000001F01011E00191D1712003C3C3C3C008C
:1006E00000000000000103070F1F3F7F0080C0E0F3
:1006F000F0F8FCFEDB40A4A62EAF2000A1C8D3007A
:10070000408DAED580A80000600000000000000011
:1007100000000000000000E00000000000000000F9
:10072000000000000001E0000000000000000000E8
:100730000000000001F000000000000000000000C8
:1007400000000003F00000000000000000000000B6
:10075000000007F0000000000000000000000000A2
:100760000007F8000000000000000000000000008A
:100770000FF800000003C0007E000001E0007F0FC2
:10078000F800000003C000FE000001E000FFEFF8E9
:1007900000000003C000FE000001E000FFFFF800C1
:1007A000000003C000F00000000F007FFE7FC000CB
:1007B0000003C000F00000000F003FFE7FF83FF193
:1007C000FBCFFCFEF3BC3DEFE01FFE7FFF7FFBFF96
:1007D000DFFEFEFFBC3DEFE01FC6FFFF7FFBFFDF3C
:1007E000FEFEFFBC3DEFE00FE3C7FE787BC3DE1EDD
:1007F000F0FFBC3DEF0007FF87FC787BC3DE1EF0F7
:10080000F83C3DEF0001FFFFF0007BC3C01EF0F09D
:100810003C3DEF0001F37FE03FFBC3CFFEF0F03C37
:100820003DEF0003E33F807FFBC3DFFEF0F03C3D84
:10083000EF0007E73C00787BC3DE1EF0F03C3DEFA5
:100840000007FFBE00787BC3DE1EF0F03C3DEF00EA
:1008500007FFFE00787BC3DE1EF0F03C3DEF000F8B
:10086000FFFE007FFBFFDFFEF0F03FFDEFE00FFF3C
:10087000FF007FFBFFDFFEF0F03FFDEFE00FF9FF31
:10088000003E79F9CF9EF0F01F3DE7E01FF1FF0039
:1008900000000000000000000000001F80FF007F3B
:1008A000FFFFFFFFFFFFFFFFFFE01C007F007FFF58
:1008B000FFFFFEB46D888D18E000001F007FFFFF72
:1008C000FFFE95AD7DB577E000000F007FFFFFFFD5
:1008D000FEA5AD9D8D19E0000006007FFFFFFFFE25
:1008E000B5ADEDB57EE00000000000018000000025
:1008F0000000000000000380000000000000000075
:100900000007C000000000000000000007C0000059
:10091000000000000000000FC00000000000000008
:1009200000001FE00000000000000000001FE000C9
:1009300000000000000000003FE000000000000098
:100940000000003FF00000000000000000007FF009
:10095000000000000000001FF87FF0000000000011
:1009600000003FFE7FF0000000000000003FFF7F1E
:10097000F0000000000000001FFFFBE0000000008E
:100980000000000FFFF9FFC00000000000000FFF93
:10099000F9FFF800000000000007FFF1FFFF000072
:1009A0000000000003FC73FFFF8000000000000156
:1009B000FE3FFFFF80000000000000FF1E0FFF0051
:1009C0000000000000007FFE1FFC0000000000008F
:1009D000003FFFFFF8000000000000000FDFFFE015
:1009E000000000000000001F19FFC0000000000010
:1009F00000003F3CFF00000000000000007E7CF88B
:100A000000000000000000007FFE7C0000000000ED
:100A1000000000FFFFFC0000000000000000FFFFDE
:100A2000FE0000000000000000FFFFFE00000000CC
:100A300000000001FFEFFE0000000000000001FFC9
:100A4000CFFE0000000000000003FF07FE000000D2
:100A50000000000003FC07FE00000000000000038F
:100A6000F003FE00000000000000018000FE000016
:100A700000000000000000007E00000000000000F8
:100A80000000003E000000000000000000000C001C
:100A90000000000000078000FC000003C000000010
:100AA000078001FC000003C0000000078001FC007B
:100AB0000003C0000000078001E00000001E0000ED
:100AC00000078001E00000001E007FE3F79FF9FDB2
:100AD000E7787BDFC0FFF7FFBFFDFDFF787BDFC05E
:100AE000FFF7FFBFFDFDFF787BDFC0F0F787BC3D60
:100AF000E1FF787BDE00F0F787BC3DE1F0787BDE3C
:100B00000000F787803DE1E0787BDE007FF7879F7C
:100B1000FDE1E0787BDE00FFF787BFFDE1E0787B59
:100B2000DE00F0F787BC3DE1E0787BDE00F0F78780
:100B3000BC3DE1E0787BDE00F0F787BC3DE1E0788A
:100B40007BDE00FFF7FFBFFDE1E07FFBDFC0FFF7CB
:100B5000FFBFFDE1E07FFBDFC07CF3F39F3DE1E001
:100B60003E7BCFC00000000000000000000000FF3E
:100B7000FFFFFFFFFFFFFFFFFFC0FFFFFFFFFD685D
:100B8000DB111A31C0FFFFFFFFFD2B5AFB6AEFC0DC
:100B9000FFFFFFFFFD4B5B3B1A33C0FFFFFFFFFD75
:100BA0006B5BDB6AFDC05353443133303620616CDC
:100BB0006C6F636174696F6E206661696C65640057
:100BC00000000000240027002A000000000025008B
:100BD00028002B00000000080002010000030407A9
:100BE00000000000000000002200FF2100010204BC
:100BF000081020408001020408102001020408109F
:100C0000200000000023002600290004040404043E
:100C100004040402020202020203030303030300AA
:100C200035191E1911241FBECFEFD8E0DEBFCDBF8E
:100C300023E0A8E7B1E001C01D92A135B207E1F7BA
:100C400011E0A0E0B1E0E2E3F1E502C005900D9211
:100C5000A837B107D9F716E0C1E1D6E004C0219763
:100C6000FE010E94F523C031D107C9F70E949F1AE7
:100C70000C948C280C9400000895FC01538D448D35
:100C8000252F30E0842F90E0821B930B541710F037
:100C9000CF96089501970895FC01918D828D981744
:100CA00061F0A28DAE0FBF2FB11D5D968C91928D1C
:100CB0009F5F9F73928F90E008958FEF9FEF08954D
:100CC000FC01918D828D981731F0828DE80FF11D16
:100CD000858D90E008958FEF9FEF0895FC01918D31
:100CE000228D892F90E0805C9F4F821B91098F732A
:100CF00099270895FC01A48DA80FB92FB11DA35AFF
:100D0000BF4F2C91848D90E001968F739927848F2B
:100D1000A689B7892C93A089B1898C91837080644E
:100D20008C93938D848D981306C00288F389E02DEF
:100D300080818F7D80830895EF92FF920F931F93A0
:100D4000CF93DF93EC0181E0888F9B8D8C8D98137E
:100D50001AC0E889F989808185FF15C09FB7F8948A
:100D6000EE89FF896083E889F989808183708064D6
:100D700080839FBF81E090E0DF91CF911F910F9121
:100D8000FF90EF900895F62E0B8D10E00F5F1F4F30
:100D90000F731127E02E8C8D8E110CC00FB607FC3F
:100DA000FACFE889F989808185FFF5CFCE010E94CD
:100DB0007A06F1CFEB8DEC0FFD2FF11DE35AFF4FBB
:100DC000F0829FB7F8940B8FEA89FB89808180625B
:100DD000CFCFCF93DF93EC01888D8823B9F0AA8918
:100DE000BB89E889F9898C9185FD03C0808186FDE6
:100DF0000DC00FB607FCF7CF8C9185FFF2CF808135
:100E000085FFEDCFCE010E947A06E9CFDF91CF9129
:100E1000089586E492E00E946E0621E0892B09F491
:100E200020E0822F089580E090E0892B29F00E9435
:100E3000090781110C940000089590E0FC01EC5228
:100E4000F44F2491FC01E351F44F3491FC01E55F30
:100E5000F34FE491EE23C9F0222339F0233001F15E
:100E6000A8F4213019F1223029F1F0E0EE0FFF1F34
:100E7000E653F44FA591B4918FB7F894EC916111BA
:100E800026C030953E233C938FBF08952730A9F0AC
:100E90002830C9F0243049F7809180008F7D03C04D
:100EA000809180008F7780938000DFCF84B58F772B
:100EB00084BDDBCF84B58F7DFBCF8091B0008F7771
:100EC0008093B000D2CF8091B0008F7DF9CF3E2BC0
:100ED000DACFCF93DF9390E0FC01E351F44F2491FC
:100EE000855F934FFC0184918823D1F090E0880FB7
:100EF000991FFC01E054F44FA591B491FC01E65315
:100F0000F44FC591D491623071F49FB7F8943C913D
:100F1000822F809583238C93E8812E2B28839FBF7B
:100F2000DF91CF9108958FB7F894EC912E2B2C93ED
:100F30008FBFF6CF3FB7F89480913A0290913B0271
:100F4000A0913C02B0913D0226B5A89B05C02F3F61
:100F500019F00196A11DB11D3FBFBA2FA92F982FDF
:100F60008827BC01CD01620F711D811D911D42E0DA
:100F7000660F771F881F991F4A95D1F708958F92A2
:100F80009F92AF92BF92CF92DF92EF92FF924B016E
:100F90005C010E949A076B017C010E949A076C1900
:100FA0007D098E099F09683E734081059105A8F36C
:100FB00021E0821A9108A108B10888EEC80E83E0EA
:100FC000D81EE11CF11C81149104A104B10429F77D
:100FD000FF90EF90DF90CF90BF90AF909F908F9059
:100FE00008958EE480937C0062E070E080E090E001
:100FF0000E94BF0780917A00806480937A0080917C
:101000007A0086FDFCCF8091780090917900089558
:10101000089508950895AF92BF92CF92DF92EF9214
:10102000FF920F931F93CF93DF936C017B018B0192
:10103000040F151FEB015E01AE18BF08C017D107E2
:1010400059F06991D601ED91FC910190F081E02D6C
:10105000C6010995892B79F7C501DF91CF911F91C1
:101060000F91FF90EF90DF90CF90BF90AF900895D9
:10107000FC0144815581608171818DE093E00C9485
:101080000B08EF92FF920F931F93CF93DF93EC0126
:10109000EC80FD806E157F050CF070C057FF04C01A
:1010A000240F351F50E040E08E819F81FA01E20F4E
:1010B000F31F8E179F071CF49C01241B350B12167F
:1010C00013060CF05BC0922F842F8695869586952B
:1010D0008E9DD0018F9DB00D11246A0F7B1FAF8DA7
:1010E000B8A1A60FB71F477049F188E0841B482FAD
:1010F000682F70E0FB01E451F94FE491281708F0E4
:1011000063C0621B71092FEF30E002C0359527954F
:101110006A95E2F7E2230130110539F0B0F10230AF
:10112000110561F58C91E82702C08C91E82BEC93B6
:10113000941720F12C813D81A20FB31FE92FE41BEE
:10114000E83078F00230110521F58E2F9C919095B2
:101150009C932C813D81A20FB31F88508830B0F73B
:10116000E770EE2359F0F0E0EC51F94FE4910130D3
:101170001105F9F010F10230110519F1DF91CF914D
:101180001F910F91FF90EF900895E0958C91E823C7
:10119000CECF81E00115110509F480E081959E2FE5
:1011A0008C932C813D81A20FB31F98509830C0F7CB
:1011B000D7CF8C91E82BEC93E1CFE0958C91E8238D
:1011C000FACF8C91E827F7CF0130110509F4ADCFA4
:1011D000E0F20230110509F4A5CFAE0DBF1DAECF70
:1011E0000F931F93CF93DF9377FF04C0260F371F12
:1011F00070E060E0DC011496CD91DC91FB01E20F20
:10120000F31FCE17DF071CF49E01261B370B1216A7
:1012100013064CF5FA0157FD3796A3E0F595E795CF
:10122000AA95E1F7EC9FD001ED9FB00DFC9FB00DAA
:1012300011246A0F7B1FDC015F96ED91FC91E60F94
:10124000F71F4770552781E090E001C0880F4A954D
:10125000EAF7482F0130110559F0A8F02E0F3F1F73
:1012600002301105E1F0DF91CF911F910F910895A8
:101270002E0F3F1FE217F307B1F38191DF011197A2
:10128000842B8C93F7CF80952E0F3F1FE217F30727
:1012900051F39191DF01119798239C93F7CFE217B7
:1012A000F30709F38191DF01119784278C93F7CF1E
:1012B0000F931F93FA01DC0156964C9156974230DA
:1012C000E9F04330A1F1413061F514964D915C9104
:1012D000DA01AE1BBF0BFD01E21BF30B77FD0BC068
:1012E000DC0116964D915C916417750724F4AB01EF
:1012F000BF010E94F0081F910F91089514964D911F
:101300005C91DA01A61BB70BBD0161507109DC01CC
:1013100016964D915C91DA01AE1BBF0BFD01E21BED
:10132000F30B77FDE8CFAF010E944108E4CF16969A
:101330004D915C91DA01A61BB70BBD01615071099B
:10134000CDCF0F931F93FA01DC0156964C9156971F
:101350004230A9F0433091F1413019F514964D9186
:101360005C91DA01AE1BBF0BFD013197F7FD04C0A4
:10137000AB01BF010E9441081F910F91089514967F
:101380004D915C91DA01A61BB70BBD01DC011696ED
:101390004D915C91DA01AE1BBF0BFD013197621BD1
:1013A000730BF7FDE9CFDC0116964D915C91E417C4
:1013B000F50714F7AF010E94F008DECF16964D91A5
:1013C0005C91DA01A61BB70BBD01621B730BCECF7C
:1013D000FC0177FD64C080859185681779070CF062
:1013E0005EC057FD5CC082859385481759070CF095
:1013F00056C086898230B1F0833029F1813041F4C2
:1014000084819581841B950BAB01BC0161507109EE
:101410002130310509F108F443C02230310509F4C7
:1014200063C0089584819581DC01A61BB70BBD01C3
:101430006150710986819781DC01A41BB50BAD0158
:1014400041505109E5CF86819781861B970BBA01E0
:10145000AC0141505109DCCFCA0157FD0796A3E00A
:1014600095958795AA95E1F7A481B5818A9F90010A
:101470008B9F300D9A9F300D1124620F731F078CC4
:10148000F0A1E02DE60FF71F4770552721E030E06F
:1014900001C0220F4A95EAF78081822B808308954C
:1014A000CA0157FD079633E0959587953A95E1F780
:1014B000A481B5818A9F90018B9F300D9A9F300D3A
:1014C0001124620F731F078CF0A1E02DE60FF71FA8
:1014D0004770552781E090E001C0880F4A95EAF7F0
:1014E000809590818923DACFCA0157FD079623E0C2
:1014F000959587952A95E1F7A481B5818A9F9001FA
:101500008B9F300D9A9F300D1124620F731F078C33
:10151000F0A1E02DE60FF71F4770552721E030E0DE
:1015200001C0220F4A95EAF780818227B7CF08953C
:101530008EBD00000DB407FEFDCF8EB508958CBDA5
:101540009DBD08950895FC016370668B848195812B
:1015500026813781613039F0633029F091878087A7
:10156000338722870895318720879387828708955C
:101570002F923F924F925F926F927F928F929F92A3
:10158000AF92BF92CF92DF92EF92FF920F931F9391
:10159000CF93DF93CDB7DEB76A970FB6F894DEBF6F
:1015A0000FBECDBF9A8F898F7A8369834A01D22E6D
:1015B00018870F833701BC2CDC0159962D913C9183
:1015C0005A972115310509F015C118968D919C91F6
:1015D0001997681779070CF0D7C11A968D919C91CD
:1015E000481759070CF0D0C14C2C512CB6E0CB9EBB
:1015F000600D711D11247C876B87161617060CF081
:10160000C3C1EA2DF0E0FA87E98793E0EE0FFF1FF0
:101610009A95E1F7F88BEF87CF01840F951F181685
:1016200019060CF0B1C1A98DBA8D58968C91811113
:1016300004C0BFEABD1508F4D394A98DBA8DED910D
:10164000FC9111970284F385E02DCD010995B5E059
:10165000DB9EC0011124E981FA81FC83EB83312CEC
:10166000212C9C012C513E4F388F2F8B4A2D50E05E
:101670005E8B4D8BEF89F88DE20DF31D44919E82B8
:101680008D82D12CC12C69817A81620D731D7A8B78
:10169000698B842F90E09C8B8B8BE98DFA8DA081D8
:1016A000B18140FF82C0F1E0BF126FC0AF126DC0C8
:1016B0001C96ED91FC912F813885A4014C0D5D1D88
:1016C00069897A89898D9A8D0995EB89FC89F595C7
:1016D000E7954E2F5FEFC51AD50A6D817E818D8902
:1016E0009E89680F791F7E836D8398E0C916D104A7
:1016F00081F6AFEF2A1A3A0AEB81FC81E40DF51D61
:10170000FC83EB83F5E02F16310409F0B3CF2F8172
:10171000388526153705B9F0A98DBA8DED91FC9164
:10172000B1E0BB1257C0AB1255C069817A816B5FC3
:101730007F4F0088F189E02D830128E030E0A4018B
:10174000898D9A8D0995A98DBA8DED91FC9111978E
:101750000688F789E02DCD016A960FB6F894DEBFB2
:101760000FBECDBFDF91CF911F910F91FF90EF90F2
:10177000DF90CF90BF90AF909F908F907F906F90B1
:101780005F904F903F902F9009941E96ED91FC91A1
:10179000EF80F88409851A8592014D815E816B8105
:1017A0007C81898D9A8D099590CF2F81388526155A
:1017B000370509F48ACF31E0B31207C0A31205C080
:1017C0001C96ED91FC91930178CF1E96ED91FC91C2
:1017D0007301E0CF6B857C85641975090684F785F4
:1017E000E02D73010F8518899201A401898D9A8DCE
:1017F0000995A9CFF9013496949132974591549166
:10180000D91AB7E0DB9E400D511D1124F901259135
:1018100034913C8B2B8BFA0125903490FA0132964F
:10182000749031963491398B32966490319644900D
:1018300041E04C1518F04A1508F07FC0662D062CC3
:10184000000C770B7C836B83842D042C000C990B8C
:101850009E838D83A98DBA8DED91FC9111970284A1
:10186000F385E02DCD010995512CD12CC12CEA2D09
:10187000F0E0FA87E9872B2D30E03C872B87A40125
:10188000440D511D47FC5A95588F4F8B69817A81C1
:10189000660D711D67FC7A957E876D877989C716FD
:1018A00008F051CF2C2D30E04D815E81420F531F47
:1018B000A985BA854A9FC0014B9F900D5A9F900DF4
:1018C0001124FC01E80DF91DF88BEF87852D612CA3
:1018D0004F89588D420F531F5E8B4D8B671408F054
:1018E00050C044244394480E877041F4C1010196CE
:1018F000EB89FC89E20DF31DD4901C01D7FE19C0C1
:10190000A98DBA8DED91FC91662D70E0B1E0BB120E
:1019100019C0AB1217C02D853E85620F731F04845A
:10192000F585E02D2F8138854D895E89898D9A8DC9
:101930000995DD0C6394842DD1CF1E821D821C82FB
:101940001B8288CF4B815C81640F751FAB85BC8582
:101950006A9FC0016B9F900D7A9F900D1124698141
:101960007A81680F791F0684F785E02DEF80F8846F
:1019700009851A859D014F855889898D9A8D09950C
:10198000D8CF570CC3948ACF6A960FB6F894DEBFAF
:101990000FBECDBFDF91CF911F910F91FF90EF90C0
:1019A000DF90CF90BF90AF909F908F907F906F907F
:1019B0005F904F903F902F9008958F929F92AF929B
:1019C000CF92EF92FF920F931F93CF93DF93EC018F
:1019D000262F898D9A8D009709F051C06A30D1F475
:1019E0001D861C868D8948E0849F900111248E8578
:1019F0009F85820F931F9F878E8781E090E0DF9104
:101A0000CF911F910F91FF90EF90CF90AF909F904B
:101A10008F9008956D3089F3CC88AD888F898823A5
:101A2000C1F08C859D8536E0C39E800D911D1124EB
:101A3000488559854817590764F44E855F851D868A
:101A40001C8638E0A39EC0011124840F951F9F8738
:101A50008E87EA88FB88088919894E855F856C85A1
:101A60007D85CE010E94B80A2C898C859D8546E033
:101A7000249F800D911D11249D878C87BECF6A30D5
:101A800069F41D861C86FC013896E4912D898E85AB
:101A90009F85E29F800D911D1124ADCF6D3009F41B
:101AA000ACCFFC0134963491631708F4A6CF32967C
:101AB000E491E61708F4A1CFFC013296859094904A
:101AC000462F431B342F47E0349F800C911C112478
:101AD000F401329634913196E4913323A9F1EE2347
:101AE00099F1CC88F4013596E491AD884F8944236F
:101AF00001F10E2E000CFF0BE30FF11DCE9EA00195
:101B0000CF9E500D11246C857D85460F571F68852B
:101B10007985641775076CF44E855F851D861C8674
:101B2000FC013896E491AE9E400D511D11245F8753
:101B30004E87EA88FB88088919894E855F856C8500
:101B40007D85CE010E94B80AF4013496E4912C8977
:101B50008C859D85E29F800D911D11248DCF6F9204
:101B60007F928F929F92AF92BF92CF92DF92EF922D
:101B7000FF920F931F93CF93DF93EC016B015A01F8
:101B800039014801E881F9810284F385E02D099546
:101B9000E881F9810288F389E02D87019301A5018D
:101BA000B601CE010995A501480D591D41505109B5
:101BB000E881F9810288F389E02D9301B601CE0115
:101BC0000995E881F9810088F189E02D9401A5014A
:101BD000B601CE010995C60CD71CB601615071093A
:101BE000E881F9810088F189E02D9401A501CE01F9
:101BF0000995E881F9810688F789E02DCE01DF910A
:101C0000CF911F910F91FF90EF90DF90CF90BF90F9
:101C1000AF909F908F907F906F9009946F927F927A
:101C20008F929F92AF92BF92CF92DF92EF92FF92EC
:101C30000F931F93CF93DF935C01EB016A0149017E
:101C400038018701DC01ED91FC916217730719F5EA
:101C5000641675062CF0962D872D3A01C92ED82EC4
:101C60009601261937092F5F3F4F048CF58DE02D23
:101C7000A301BE01C5010995DF91CF911F910F917D
:101C8000FF90EF90DF90CF90BF90AF909F908F909C
:101C90007F906F9008954615570591F426173707E2
:101CA00024F0892D4B01C22FD82F9E012819390904
:101CB0002F5F3F4F068CF78DE02DA601B401DACFE0
:101CC0000284F385E02D0995D501ED91FC910488FE
:101CD000F589E02D83019401A601BE01C501099596
:101CE000D501ED91FC910688F789E02DC501DF91C2
:101CF000CF911F910F91FF90EF90DF90CF90BF9009
:101D0000AF909F908F907F906F900994EF92FF9289
:101D10000F931F93DC011A960D911C911B97189637
:101D20002D913C911997ED91FC9100A0F1A1E02D2E
:101D30007B0150E040E070E060E009951F910F9159
:101D4000FF90EF9008954F925F926F927F928F92E3
:101D50009F92AF92BF92CF92DF92EF92FF920F933A
:101D60001F93CF93DF936C012B015A013901480176
:101D7000DC01ED91FC910284F385E02D0995E201EF
:101D8000640C751CD601ED91FC91C615D7055CF469
:101D90000088F189E02D87019401A501BE01C601EB
:101DA00009952196EFCF0688F789E02DC601DF91CE
:101DB000CF911F910F91FF90EF90DF90CF90BF9048
:101DC000AF909F908F907F906F905F904F9009940D
:101DD0008F929F92AF92BF92CF92DF92EF92FF923B
:101DE0000F931F93CF93DF93EC015B014A016901CD
:101DF000E881F9810284F385E02D099595012C0D88
:101E00003D1D21503109E881F9810488F589E02DD3
:101E100078018401A401B501CE010995E881F98119
:101E20000688F789E02DCE01DF91CF911F910F91A8
:101E3000FF90EF90DF90CF90BF90AF909F908F90EA
:101E400009948F929F92AF92BF92CF92DF92EF92BE
:101E5000FF920F931F93CF93DF93EC015B014A0135
:101E600069017801E881F9810284F385E02D099503
:101E7000C80CD91C860101501109E881F981048838
:101E8000F589E02D9501A401B501CE010995E88100
:101E9000F9810688F789E02DCE01DF91CF911F915E
:101EA0000F91FF90EF90DF90CF90BF90AF909F90F9
:101EB0008F900994EF92FF920F931F93DC01ED91A5
:101EC000FC9100A0F1A1E02D09951F910F91FF90C9
:101ED000EF9008950F931F93DC01ED91FC91068C18
:101EE000F78DE02D09951F910F9108950F931F9382
:101EF000DC01ED91FC91048CF58DE02D09951F918D
:101F00000F910895DC01ED91FC910084F185E02DA5
:101F100009943F924F925F926F927F928F929F921D
:101F2000AF92BF92CF92DF92EF92FF920F931F93E7
:101F3000CF93DF935C017B014A016901390187E09E
:101F4000680E711C93E0759467949A95E1F72B01E4
:101F5000400E511E10E000E0312CD0E0C0E0CE0178
:101F600087709927330C892B59F4FE0183E0F5958E
:101F7000E7958A95E1F7E00FF11FE80DF91D349020
:101F800037FE0AC021E030E0A701B5016C0F7D1FCC
:101F90008DE093E00E94820F2196CC16DD06F9F6C3
:101FA0008FEFE81AF80A060D171DE414F504A9F6D8
:101FB000DF91CF911F910F91FF90EF90DF90CF9025
:101FC000BF90AF909F908F907F906F905F904F9059
:101FD0003F9008952F923F924F925F926F927F921F
:101FE0008F929F92AF92BF92CF92DF92EF92FF9229
:101FF0000F931F93CF93DF9300D000D000D0CDB7C5
:10200000DEB73C016A013E832D83FC82EB825801DE
:10201000A41AB50AB7FE03C0B194A194B1088D808B
:102020009E80861A970A97FE03C091948194910826
:102030008A149B045CF0902F812F0D811E819D835B
:102040008E839C2D8D2D6B01692F782F0C151D050E
:102050005CF09D818E817E836D83692F782F902F18
:10206000812F8601C92ED82E1601201A310A2B0184
:102070002D813E81421A530A57FE03C05194419468
:102080005108710137FE03C03FEFE31AF30AF594DC
:10209000E7948D819E81861797075CF5A1E0B0E0FB
:1020A000BA83A983C016D1064CF1D301ED91FC91FE
:1020B0000484F585E02D2B813C81A8016D817E8112
:1020C0008A149B041CF04D815E81B801C3010995FF
:1020D000E418F508F7FE0AC02D813E8189819A81B6
:1020E000280F391F3E832D83E20CF31C0F5F1F4F17
:1020F000D9CF2FEF3FEF3A832983D4CF26960FB65F
:10210000F894DEBF0FBECDBFDF91CF911F910F912D
:10211000FF90EF90DF90CF90BF90AF909F908F9007
:102120007F906F905F904F903F902F90089508950B
:102130002091DE01260F3327331F21323105ECF4C5
:1021400020910202FC0190E080E0243069F082E0FE
:102150000895A091DE012191AC0142545E4FA40F7D
:10216000B52FB11D2C930196861798F38091DE014F
:10217000680F6093DE0180E0089581E00895109279
:10218000020281E0809304021092030261E082E186
:102190000E941D0761E083E10E941D07E9EBF0E06A
:1021A00080818E7F808380818D7F808388E480938F
:1021B000B80085E48093BC000895CF93DF9391E04D
:1021C0009093BD018823B9F0C091B800D091BA00B6
:1021D0008091BC008A7B8093BC0060E082E10E9419
:1021E0001D0760E083E10E941D070E94BF10D0938D
:1021F000BA00C093B800DF91CF910895E0912E020C
:1022000080912D02E81730F4F0E0E856FE4F80810F
:1022100090E008958FEF9FEF089590912E028091A6
:102220002D022FEF3FEF981748F4E92FF0E0E85622
:10223000FE4F208130E09F5F90932E02C9010895E8
:1022400080912D0290912E02891B990B0895CF92B7
:10225000DF92EF92FF920F931F93CF93DF937C0156
:10226000CB018A0120914502222389F0EB016B0109
:10227000C40ED51ECC15DD0569F06991D701ED912D
:10228000FC910190F081E02DC7010995F3CF642FF7
:102290000E949810C801DF91CF911F910F91FF907C
:1022A000EF90DF90CF900895CF93DF931F92CDB73B
:1022B000DEB76983209145022223F9F02091420282
:1022C000203258F021E030E0FC013383228390E09B
:1022D00080E00F90DF91CF91089580914302E82F25
:1022E000F0E0E858FE4F998190838F5F809343021E
:1022F0008093420281E090E0ECCF61E0CE01019654
:102300000E949810F7CFCF92DF92EF92FF920F9337
:102310001F93CF93DF93D091420281E0D13208F036
:102320009CC0C09144020E949A076B017C0180917D
:10233000020281116CC082E08093020281E08093EE
:1023400004028FEF8093010210922602D09325029F
:10235000A8E7B1E0E5E0F2E080E0D8138DC010928C
:10236000270280912702CC0FC82BC09327028091AF
:102370000302813009F084C0109203020E949A0780
:102380006B017C01809127028093BB008091B90191
:102390009091BA01A091BB01B091BC01892B8A2B0D
:1023A0008B2BA1F00E949A070091B9011091BA01FC
:1023B0002091BB013091BC016C197D098E099F09E8
:1023C000061717072807390708F442C08091BC0098
:1023D00083FDD8CF85EC8093BC000E949A076B01E7
:1023E0007C0180910202823009F44CC0809101028C
:1023F0008F3F09F469C080910102803209F466C000
:1024000080910102803309F463C084E026C080918A
:10241000B9019091BA01A091BB01B091BC01892B87
:102420008A2B8B2B09F483CF0E949A070091B90164
:102430001091BA012091BB013091BC016C197D094A
:102440008E099F09061717072807390708F06FCF6D
:102450008091B8010E94DD1085E010924302109235
:10246000420210924502DF91CF911F910F91FF9090
:10247000EF90DF90CF9008959D9191938F5F6DCFF6
:1024800085EEA9CF8091B9019091BA01A091BB01CD
:10249000B091BC01892B8A2B8B2B09F4A2CF0E940F
:1024A0009A070091B9011091BA012091BB013091B6
:1024B000BC016C197D098E099F09061717072807AB
:1024C000390708F08ECFC4CF80E0C7CF82E0C5CFF8
:1024D00083E0C3CFEF92FF920F931F93CF93DF93CD
:1024E0007C01C62F80912A0390912B03009709F459
:1024F00059C020912E0331E03093450220934402CD
:102500001092430210924202DC01ED91FC91019085
:10251000F081E02D60E009958701EE24E394F12C31
:10252000D1E0C15080912A0390912B03CF3F91F1CC
:10253000B0E2EB16F104D8F00E94831180912A03D7
:1025400090912B0320912E03D093450220934402B7
:102550001092430210924202DC01ED91FC91019035
:10256000F081E02D60E00995EE24E394F12C809158
:102570002A0390912B03F8016491DC01ED91FC9109
:102580000190F081E02D0995BFEFEB1AFB0A0F5F78
:102590001F4FC7CFDF91CF911F910F91FF90EF9009
:1025A0000C948311E0913A03F0913B039081809168
:1025B00040038095892380838701C15008F438C087
:1025C000F80184912091280330912903232B29F0CD
:1025D0000E94980A0F5F1F4FF0CF28E030E040E8DC
:1025E000E0913603F091370390913E03582F542326
:1025F000D9F05081952B9083E0913803F091390305
:10260000908150913F03952B9083E0913803F09196
:102610003903508190913F0390959523908346957F
:1026200021503109E9F6D6CF508190959523E3CF1B
:10263000DF91CF911F910F91FF90EF9008951F931D
:10264000CF93DF93EC018D8D9E8D009721F1162F96
:1026500029A131E0309345022093440210924302B5
:1026600010924202DC01ED91FC910190F081E02D8D
:1026700060E009958D8D9E8DDC01ED91FC910190BE
:10268000F081E02D612F09958D8D9E8DDF91CF9189
:102690001F910C948311ADA5BEA59C918BA980952B
:1026A00089238C938B8D9C8D892B31F0862FDF9124
:1026B000CF911F910C94980A28E030E080E8A9A5FA
:1026C000BAA599A9462F4823C1F04C91942B9C930D
:1026D000ABA5BCA59C914AA9942B9C93ABA5BCA58A
:1026E0004C919AA9909594239C93869521503109F9
:1026F00031F7DF91CF911F9108954C9190959423DC
:10270000E6CFDF92EF92FF920F931F93CF93DF9369
:1027100080912A0390912B03892B09F498C0209172
:10272000420330914303409144035091450360E0DC
:1027300074E284EF90E00E94D323205131094109D3
:10274000510956954795379527952093B80065E030
:1027500088EE9BE00E946A126091110361508DE047
:1027600093E00E941F132091130330911403C901B9
:10277000079697FD079633E0959587953A95E1F78B
:102780002091110330911203829F8001839F100DCD
:10279000929F100D1124C0912C03D0912D03809194
:1027A0002A0390912B030C0F1D1F009709F48FC073
:1027B00020912E0331E03093450220934402109281
:1027C000430210924202DC01ED91FC910190F081F4
:1027D000E02D60E40995EE24E394F12CDD24D394FC
:1027E00080912A0390912B030C171D0709F446C012
:1027F000B0E2EB16F104D8F00E94831180912A0315
:1028000090912B0320912E03D092450220934402F5
:102810001092430210924202DC01ED91FC91019072
:10282000F081E02D60E40995EE24E394F12C809191
:102830002A0390912B036991DC01ED91FC910190A9
:10284000F081E02D0995BFEFEB1AFB0AC9CF80910B
:10285000280390912903892B31F080914B039091AB
:102860004C030E949F0AE0913C03F0913D0390814C
:102870008091410380958923808369CF0E948311D1
:1028800080912A0390912B03892B09F461C0209138
:10289000460330914703409148035091490360E05B
:1028A00074E284EF90E00E94D32320513109410962
:1028B000510956954795379527952093B800DF9194
:1028C000CF911F910F91FF90EF90DF900895E091CD
:1028D0003A03F0913B03808190914003892B8083E0
:1028E0000C171D0769F28991209128033091290363
:1028F000232B19F00E94980AF3CF28E030E040E83B
:10290000E0913603F091370390913E03582F542302
:10291000D9F05081952B9083E0913803F0913903E1
:10292000908150913F03952B9083E0913803F09173
:102930003903508190913F0390959523908346955C
:1029400021503109E9F6CCCF508190959523E3CF02
:10295000E0913C03F0913D03808190914103892BEC
:102960008083ADCF1F93CF93DF93EC01162F8D8D16
:102970009E8D892BB1F12DA93EA94FA958AD60E0DC
:1029800074E284EF90E00E94D32320513109410981
:10299000510956954795379527952093B80066EAD3
:1029A000111167EACE010E941F138D8D9E8D892B18
:1029B00041F129AD3AAD4BAD5CAD60E074E284EF1E
:1029C00090E00E94D32320513109410951095695C5
:1029D0004795379527952093B800DF91CF911F91A8
:1029E00008958B8D9C8D892B21F08EAD9FAD0E941B
:1029F0009F0AEFA5F8A990818CA9809589238083EF
:102A0000CECFEFA5F8A980819CA9892B8083E5CF43
:102A100090E080E00895DC01ED91FD918081ED91E1
:102A2000FD919081ED91FD916C9163708E2309F081
:102A300064609F2309F06860E8E2F5E1E60FF11DAC
:102A4000659565956D936D917D918D919D9109949D
:102A500023C01AC012C016C010C01EC009C014C0C6
:102A600013C006C019C009C00DC007C00DC014C0F6
:102A700062507040804090400BC061507040804078
:102A8000904006C06E5F01C06F5F7F4F8F4F9F4FBA
:102A90009E938E937E936E9308958091EF02909112
:102AA000F0020C940B158091F1029091F2020C94BB
:102AB0000B15FB0101900020E9F73197AF01461B90
:102AC000570BDC01ED91FC910280F381E02D09941C
:102AD0008F929F92AF92BF92EF92FF920F931F93AC
:102AE000CF93DF93CDB7DEB7A1970FB6F894DEBFD3
:102AF0000FBECDBF7C01FA01CB0119A2223008F430
:102B00002AE08E010F5D1F4F822E912CB12CA12C3B
:102B1000BF01A50194010E94D323F901CA016A30C3
:102B20000CF5605DD8016E938D01232B242B252B92
:102B300079F790E080E0109721F0BD01C7010E9475
:102B40005915A1960FB6F894DEBF0FBECDBFDF9129
:102B5000CF911F910F91FF90EF90BF90AF909F90FA
:102B60008F900895695CDECF8F929F92AF92BF9253
:102B7000CF92DF92EF92FF921F93CF93DF936B017F
:102B80007C01B42E20E030E0A9010E947522D0E043
:102B9000C0E087FF0AC06DE28DE093E00E94DD0C8B
:102BA000EC01F7FAF094F7F8F09410E060E070E0D0
:102BB00080E09FE31B1541F020E030E040E251E46B
:102BC0000E9468241F5FF6CFA70196010E94FC2394
:102BD0006B017C010E94DA244B015C012AE0BC01FC
:102BE000A4018DE093E00E946815C80FD91F11233E
:102BF000D1F1C501B4010E947A229B01AC01C70149
:102C0000B6010E94FB236B017C016EE28DE093E034
:102C10000E94DD0CC80FD91F115028F120E030E0D0
:102C200040E251E4C701B6010E94DB224B015C0186
:102C30000E94DA246B01F12CE12C2AE0B701A601F5
:102C40008DE093E00E946815C80FD91FC701B60137
:102C50000E947A229B01AC01C501B4010E94FB23B2
:102C60006B017C01D9CFCE01DF91CF911F91FF90F5
:102C7000EF90DF90CF90BF90AF909F908F9008958E
:102C800080589C40BC0190E080E00E947A2228E0BD
:102C90003CEA4CED5FE30E94DB2220E030E048E4B8
:102CA00054E40E94682420E030E040EB50E40E94AD
:102CB000092520E030E040E85FE30E94FC239B010F
:102CC000AC0160E070E082ED92E40E9468249B0118
:102CD000AC0160E070E082ED92E40E94FB230E9470
:102CE000DA24862F653608F084E6089520911303D0
:102CF00030911403C901079697FD079623E0959537
:102D000087952A95E1F72091110330911203829F54
:102D1000A001839F500D929F500D112470E060E040
:102D200080912C0390912D030C947E280E94702892
:102D3000EF92FF920F931F93CF93DF93EC017B01F0
:102D40008A0188819981009729F02A813B81241783
:102D5000350788F4B8016F5F7F4F0E94B327009753
:102D600091F0998388831B830A832C813D81232BD7
:102D700011F4FC0110821D830C83B70188819981B5
:102D80000E9485280CC088819981009711F00E94CB
:102D90002A27198218821D821C821B821A82CE0168
:102DA000DF91CF911F910F91FF90EF90089585EDE6
:102DB0008093BC008091B9019091BA01A091BB01B0
:102DC000B091BC010796A11DB11D23E0B695A79552
:102DD000979587952A95D1F72091BC0024FD03C0D3
:102DE0001092020208954091B9015091BA01609188
:102DF000BB017091BC01452B462B472B69F3009713
:102E0000A105B10541F02AE22A95F1F700C001972A
:102E1000A109B109E1CF8091B8010C94DD101F9296
:102E20000F920FB60F9211242F933F938F939F937E
:102E3000AF93BF938091F3029091F402A091F502B9
:102E4000B091F6023091390223E0230F2D3758F567
:102E50000196A11DB11D209339028093F302909336
:102E6000F402A093F502B093F60280913A02909199
:102E70003B02A0913C02B0913D020196A11DB11D03
:102E800080933A0290933B02A0933C02B0933D02A0
:102E9000BF91AF919F918F913F912F910F900FBE56
:102EA0000F901F90189526E8230F0296A11DB11DC3
:102EB000D2CF1F920F920FB60F9211242F933F93F0
:102EC0004F935F936F937F938F939F93AF93BF9332
:102ED000EF93FF93E0910301F09104010995FF91B5
:102EE000EF91BF91AF919F918F917F916F915F9182
:102EF0004F913F912F910F900FBE0F901F901895FB
:102F00001F920F920FB60F9211242F933F934F935E
:102F10005F936F937F938F939F93AF93BF93EF9341
:102F2000FF93E0910101F09102010995FF91EF916A
:102F3000BF91AF919F918F917F916F915F914F91D1
:102F40003F912F910F900FBE0F901F9018951F92D9
:102F50000F920FB60F9211242F933F934F935F93CD
:102F60006F937F938F939F93AF93BF93EF93FF9351
:102F700086E492E00E947A06FF91EF91BF91AF91B3
:102F80009F918F917F916F915F914F913F912F9181
:102F90000F900FBE0F901F9018951F920F920FB6B3
:102FA0000F9211242F938F939F93EF93FF93E091B0
:102FB0005602F09157028081E0915C02F0915D022F
:102FC00082FD1BC0908180915F028F5F8F73209183
:102FD0006002821741F0E0915F02F0E0EA5BFD4F92
:102FE000958F80935F02FF91EF919F918F912F9129
:102FF0000F900FBE0F901F9018958081F4CF1F92F5
:103000000F920FB60F9211242F933F934F935F931C
:103010006F937F938F939F93AF93BF93EF93FF93A0
:103020008091B900887F803609F44AC0F0F5883273
:1030300009F4A7C018F5803109F49BC0B8F48823BF
:1030400009F4F9C0883009F494C0FF91EF91BF9161
:10305000AF919F918F917F916F915F914F913F9130
:103060002F910F900FBE0F901F901895883109F483
:1030700088C0803251F78093010214C0803409F473
:103080009DC040F48033B9F38833F9F68093010290
:1030900085ECB0C0803509F485C0883509F496C048
:1030A000883499F60E94D716D0CF883909F48CC09D
:1030B00038F5883729F050F4883611F0803729F632
:1030C00083E0809302021092000257C0883809F40E
:1030D0007BC0803919F0803809F0B7CF80910002A9
:1030E000803208F071C0E091000281E08E0F809381
:1030F00000028091BB00F0E0E052FE4F80833DC0B3
:10310000803B39F0E0F4803A09F479C0883A09F05C
:103110009CCF84E0809302021092DF011092DE01C6
:10312000E0912B02F0912C0209958091DE01811132
:103130000FC081E08093DE011092BE0109C0803C87
:1031400009F4A6CF883C09F4A3CF883B09F07DCFD2
:10315000E091DF0181E08E0F8093DF01F0E0E25427
:10316000FE4F80818093BB009091DF018091DE0152
:1031700029C0809127028093BB0085EC8093BC001E
:1031800064CF9091260280912502981758F5E0911E
:10319000260281E08E0F80932602F0E0EB5FFD4F68
:1031A0008081E9CFE091260281E08E0F8093260294
:1031B0008091BB00F0E0EB5FFD4F80839091260291
:1031C000809125029817C8F285E8D8CFE0912602B1
:1031D00081E08E0F809326028091BB00F0E0EB5FD0
:1031E000FD4F80838091040281115CCF81E0809348
:1031F000030284EA8093BC001092020226CF85EC81
:103200008093BC001092020280910002803230F460
:10321000E0910002F0E0E052FE4F10826091000267
:1032200070E0E0912902F0912A0280EE91E0099588
:10323000109200020ACF1092010234CF809107034E
:1032400090910803009711F00E942A2783E391E0F0
:1032500090930E0380930D0380912C0390912D0386
:10326000009711F00C942A270895CF93DF931092C2
:1032700049021092480288EE93E0A0E0B0E080930B
:103280004A0290934B02A0934C02B0934D022FE060
:1032900031E0309347022093460225EC30E0309332
:1032A00053022093520224EC30E0309355022093D5
:1032B000540220EC30E0309357022093560221EC68
:1032C00030E0309359022093580222EC30E03093E2
:1032D0005B0220935A0226EC30E030935D0220938B
:1032E0005C0210925F0210926002109261021092D2
:1032F00062021092E6021092E5028093E702909338
:10330000E802A093E902B093EA0281E291E090938F
:10331000E4028093E3021092100310920F0320E85E
:1033200030E0309312032093110380E490E09093F7
:103330001403809313033093160320931503909383
:103340001803809317031092230310921A0310920C
:10335000190310921C0310921B0381E08093220337
:10336000809321032FEF3FEF3093200320931F031F
:1033700030931E0320931D03809324031092250392
:10338000109227031092260383E391E090930E039B
:1033900080930D03109229031092280383EE92E08C
:1033A00090932B0380932A0310922D0310922C03E9
:1033B0008FEF8093310380933203809333038093A4
:1033C00034038093350380E89AE1A6E0B0E080936F
:1033D000420390934303A0934403B093450380EAD0
:1033E00096E8A1E0B0E08093460390934703A09352
:1033F0004803B093490380E580934B0310924C033C
:103400000E949A078FB7F8944091F3025091F4020A
:103410006091F5027091F6028FBF1092080310922E
:10342000070310920A031092090310920C031092E2
:103430000B0350E040E06DE571E087E093E00E940F
:10344000981685E0809305031092060384E080932C
:1034500003031092040362E082E00E94690762E0C5
:1034600083E00E946907EDE0FCE0E491F0E0EE0FFC
:10347000FF1FEF5FF34FA591B491B093F802A093B3
:10348000F702EFEEFBE044914093FB02EEE0FCE03C
:10349000E491F0E0EE0FFF1FEF5FF34FC591D49181
:1034A000D093FA02C093F902E0EFFBE0E491E093DD
:1034B000FC021092FE021092FF0210920003109282
:1034C00001032BE33FE1C9010197F1F79C91842FA0
:1034D000892391E009F490E08881E82309F0926063
:1034E00027EF32E09093FD023093F0022093EF0239
:1034F0008DE495E190930201809301018091690030
:103500008C7F816080936900E89A81E08093020358
:103510003093F2022093F10283E595E19093040148
:103520008093030180916900837F846080936900A8
:10353000E99A82E080930203DF91CF910895CF93BF
:10354000DF93CDB7DEB760970FB6F894DEBF0FBE3E
:10355000CDBF789484B5826084BD84B5816084BD1C
:1035600085B5826085BD85B5816085BD80916E0021
:10357000816080936E001092810080918100826052
:10358000809381008091810081608093810080918F
:1035900080008160809380008091B100846080937E
:1035A000B1008091B00081608093B00080917A007A
:1035B000846080937A0080917A00826080937A00A0
:1035C00080917A00816080937A0080917A0080688F
:1035D00080937A001092C10062E0809105030E94FE
:1035E000690762E0809103030E946907C12C10E320
:1035F000D12E11E1E12EF12CC0923E02D0923F0279
:10360000E0924002F09241020E94F1079C0150E0DA
:1036100040E0C701B6010E94D32321388CE038076F
:10362000A8F1C9010E9440168093380261E08DE044
:103630000E94690761E08DE00E941D0780912C03C4
:1036400090912D03892B21F10E947616209113036E
:1036500030911403809111039091120321323105AE
:103660000CF04DC0B9016052710977FF02C06F5F65
:103670007F4F759567958357910997FD019600E2F5
:1036800010E023E730E046E057E04CC080E0CCCFCC
:103690002091130330911403C901079697FD0796F3
:1036A000B3E095958795BA95E1F720911103309194
:1036B0001203FC01E29FC001E39F900DF29F900D69
:1036C00011240E948E2690932D0380932C03892B26
:1036D00009F0BACF06EA1BE0F8016491662341F0D5
:1036E00086E492E00E949C060F5F1F4F892BA1F792
:1036F0006BE571E086E492E00E945915FFCFB901B5
:103700006054710977FF02C06F5F7F4F75956795B1
:103710008255910997FD019600E410E022E530E022
:1037200046EE58E0959587950E94890F82E0809338
:103730002F0380912A0390912B03892B09F439C31D
:103740008CE380932E0310922E0210922D02109281
:103750004302109242020E94BF1088E098E09093CA
:103760002C0280932B0289E098E090932A028093A8
:1037700029028091350387FD1EC061E00E94690720
:1037800061E0809135030E941D0761E070E080E0F8
:1037900090E00E94BF0760E0809135030E941D0702
:1037A0006AE070E080E090E00E94BF0761E08091F5
:1037B00035030E941D0780912A0390912B03892BCA
:1037C00009F4B6C32091420330914303409144036E
:1037D0005091450360E074E284EF90E00E94D323AF
:1037E000205131094109510956954795379527953B
:1037F0002093B80064E082E097E00E946A12609132
:10380000130361508DE093E00E941F1364E08EEF7C
:1038100096E00E946A1280912F0360E1813009F0E6
:1038200064E18DE093E00E941F1364E08AEF96E06C
:103830000E946A128FE880934A038091110390914D
:1038400012038038910509F08CC380911303909185
:1038500014038034910509F094C380912F038130C3
:1038600009F07DC38FE980934A0312E16AED8DE090
:1038700093E00E941F13612F8DE093E00E941F13BD
:1038800061E88DE093E00E941F1360914A038DE090
:1038900093E00E941F1369ED8DE093E00E941F13D7
:1038A00080912F0362E2813009F061EF8DE093E0B7
:1038B0000E941F1366E084EF96E00E946A128091D6
:1038C0002A0390912B03892B09F45FC320914603AF
:1038D00030914703409148035091490360E074E2FE
:1038E00084EF90E00E94D32320513109410951090E
:1038F00056954795379527952093B8000E947616E0
:103900000E948113AA24A394B12CA2E09A2E0E94B3
:1039100076160E949A0700912F0210913002209192
:10392000310230913202601B710B820B930B6938AC
:1039300073418105910570F1C0903E02D0903F0225
:10394000E0904002F09041020E94F1079C0150E09B
:1039500040E0C701B6010E94D32321388CE038072C
:1039600008F41DC3C9010E944016809338022FB786
:10397000F8948091F3029091F402A091F502B09135
:10398000F6022FBF80932F0290933002A093310252
:10399000B0933202E0E4F0E0F0931A03E0931903ED
:1039A00010921C0310921B03909221039092220309
:1039B000B0922003A0921F03B0921E03A0921D0399
:1039C0004091380250E070E060E02AE08DE093E042
:1039D0000E94681565E28DE093E00E94DD0CD090B6
:1039E0003802EE24E394F12C00E110E022E130E013
:1039F00050E040E061E770E08DE093E00E94A30EAC
:103A0000F12CE12C08E010E02DE030E044E050E043
:103A100062E770E08DE093E00E94A30E02E110E007
:103A200022E030E050E040E06DE770E08DE093E0B0
:103A30000E94A30E02E010E020E130E050E040E000
:103A400061E770E08DE093E00E94A30E20E130E09A
:103A50004EE050E061E770E08DE093E00E94A30E3D
:103A600024E030E042E050E06FE770E08DE093E06A
:103A70000E94A30E24E030E04CE050E06FE770E0DD
:103A80008DE093E00E94A30E8FEF8D0D893178F4C5
:103A9000EE24E394F12C04E010E021E030E046E075
:103AA00050E065E770E08DE093E00E94A30E86EEA3
:103AB0008D0D8931C8F4EE24E394F12C04E010E07C
:103AC00021E030E046E050E065E770E08DE093E013
:103AD0000E94A30E21E030E046E050E067E770E08E
:103AE0008DE093E00E94A30E8DEC8D0D893118F5C9
:103AF000EE24E394F12C04E010E021E030E046E015
:103B000050E065E770E08DE093E00E94A30E21E0B5
:103B100030E046E050E067E770E08DE093E00E941F
:103B2000A30E21E030E046E050E069E770E08DE070
:103B300093E00E94A30E84EB8D0D893168F5EE248D
:103B4000E394F12C04E010E021E030E046E050E0A6
:103B500065E770E08DE093E00E94A30E21E030E085
:103B600046E050E067E770E08DE093E00E94A30E2E
:103B700021E030E046E050E069E770E08DE093E05E
:103B80000E94A30E21E030E046E050E06BE770E0D9
:103B90008DE093E00E94A30E0E9481130E94811386
:103BA0003324339433E0832E40E1442E512C809112
:103BB000370281112FC29092210390922203B0927A
:103BC0002003A0921F03B0921E03A0921D03109227
:103BD0001A031092190310921C0310921B036EE536
:103BE00071E08DE093E00E9459156BE571E08DE086
:103BF00093E00E9459150E94811380910203823044
:103C000008F0CFC1F89487EF92E00E940B15509115
:103C1000FE024091FF02309100032091010378944D
:103C2000652F742F832F922F97FF07C09095809553
:103C3000709561957F4F8F4F9F4F0E947C222BED97
:103C40003FE049E450E40E94DB2223E333E34FE00A
:103C500051E40E94DB2220E030E040E953E40E947E
:103C600068246093330270933402809335029093FA
:103C700036028091000181110CC0F8941092FE026E
:103C80001092FF0210920003109201037894309278
:103C90000001809221038092220342E050E065E619
:103CA00071E087E093E00E94981660913302709172
:103CB000340280913502909136028E010F5F1F4FC2
:103CC00022E04AE00E9417201C861B861E861D8665
:103CD000188A1F86009769F0FC0101900020E9F71F
:103CE0003197AF01481B590BBC01CE010B960E94C6
:103CF0009816CB84DC84C114D10439F00F8518895F
:103D000076010115110509F04FC12F8538894AEF59
:103D10004203C001439F900D112480589F4F9695F8
:103D20008795809221038092220390931A038093B7
:103D3000190350921C0340921B03CE010B960E9464
:103D400038088B859C85009711F00E942A2780E314
:103D500090E090931A0380931903E3E2F0E0F0936C
:103D60001C03E0931B0387E093E00E943808109245
:103D70001A031092190349E350E050931C03409337
:103D80001B03309221033092220368E671E08DE03C
:103D900093E00E94591542E063E373E38FE890E4F7
:103DA0000E94B41587E093E00E9438080E948113B6
:103DB000FECE61E0809133030E94690761E080914B
:103DC00034030E94690780913303082E000C990B7D
:103DD000FC01E55FF34FE491F0E0EE0FFF1FE653C7
:103DE000F44F2591349130933B0320933A03FC0127
:103DF000E351F44FE491E093400380913403082EA3
:103E0000000C990BFC01E55FF34FE491F0E0EE0F3D
:103E1000FF1FE653F44FA591B491B0933D03A093D7
:103E20003C03FC01E351F44FE491E09341038C9196
:103E3000E82BEC938091280390912903892B09F4B6
:103E400034C01FB7F89480912802811127C0E5E1A2
:103E5000FCE08491E7EFFBE09491E82FF0E0EE0FB7
:103E6000FF1FE054F44FA591B491EC91E92321F4A4
:103E700061E08AE00E941D0761E08AE00E94690714
:103E80008CB580618CBD8CB580648CBD61E08DE0AB
:103E90000E94690761E08BE00E9469078091280217
:103EA0008F5F809328021FBF64CC61E08091310353
:103EB0000E94690761E0809132030E946907809146
:103EC0003103082E000C990BFC01E55FF34FE491E0
:103ED000F0E0EE0FFF1FE653F44F2591349130933D
:103EE000370320933603FC01E351F44FE491E09350
:103EF0003E0380913203082E000C990BFC01E55F14
:103F0000F34FE491F0E0EE0FFF1FE653F44FA5915D
:103F1000B491B0933903A0933803FC01E351F44FFB
:103F2000E491E0933F038C91E095E823EC9321CC5E
:103F30008091280390912903892B31F080914B03C4
:103F400090914C030E949F0AE0913C03F0913D0345
:103F50009081809141038095892380834BCC8FECA5
:103F600082CC8036910569F48091130390911403FB
:103F7000409739F480912F03813029F480E18093B8
:103F80004A0312E073CC8FEAFACFE0913C03F09140
:103F90003D03808190914103892B8083AFCC80E0E9
:103FA000E4CCF89434CE73013701FFEF6F1A7F0A27
:103FB000F7018081082E000C990B0E946C22892B3E
:103FC00091F7015011090C0D1D1DF8018081082E7B
:103FD000000C990B0E946C22892B31F00E151F05E5
:103FE00018F001501109F1CFA8014F5F5F4F4E1932
:103FF0005F09588B4F87CE14DF0420F4B701C60148
:104000000E947528EB85FC858F859889E80FF91F3C
:1040100010827BCE80E090E0892B09F478CC0E945E
:104020000907882309F471CC0E9400006BCCEF9241
:104030000F931F93CF93DF93E80134E047FD34E102
:10404000042E000C550B57FF03C0519541955109A3
:10405000E32E022F242FAE010E943520CE01DF91E6
:10406000CF911F910F91EF900895A9E0B0E0EBE39D
:10407000F0E20C94A2236A01F22EB02E102FFBE383
:10408000AF2EA01608F41BE31F5F012F27E0AE013F
:104090004F5F5F4F0E949421BC018981982F9970D6
:1040A000913009F43FC09BE2E1FC04C09E2D917069
:1040B000E0FC3AC05E2D5071E82FE87083FF46C0E7
:1040C00084E0911101C083E0EF2DE81B8F1508F00B
:1040D000E0E0D6018E2F20E2552351F1992329F0FB
:1040E000D6019C93C60101966C0196012D5F3F4F4E
:1040F000E2FE24C08EE4D6018C9391E411969C9349
:10410000119712968C93D9018E2F90E281111BC0CA
:10411000E20FF32FF11D10828EEF9FEF2996ECE056
:104120000C94BE239DE2C6CF90E2C4CF2D93815064
:104130008111FCCFCE0ED11CE0E0D0CF8EE6D601AF
:104140008C9391E6DBCF9D938150E0CF482F447054
:1041500082FF3DC084E0911101C083E08F1510F40F
:10416000EF2DE81BD6018E2F20E2552309F199236C
:1041700029F0D6019C93C60101966C0196012D5F32
:104180003F4FE2FE1BC089E4D6018C938EE411966A
:104190008C93119786E412968C93D9018E2F90E21E
:1041A000882309F4B5CF9D938150FACF2D93815088
:1041B0008111FCCFCE0ED11CE0E0D9CF89E6D6012B
:1041C0008C938EE611968C93119786E6E4CF9B0133
:1041D00077FF02C030E020E0A1E0B0E0911102C022
:1041E000B0E0A0E0F9013196AE0FBF1F8B2C912CEF
:1041F000BB2009F461C05401EFEFAE1ABE0AAA0D4C
:10420000BB1DFA161B0619F014F04F2D4A1B511155
:1042100088C0E3FC59C07601A42FB0E2A1114FC0C1
:10422000C40ED11C992309F45BC040E0D60111965D
:10423000F60190836D01552309F448C0012F060F44
:104240009A81582F507184FF03C0913309F40150B3
:1042500010160CF047C0093008F008E0EEE2FE2E20
:104260005B01A01AB10885019194819491082F3FB8
:10427000320729F4D601FC92F60131966F016217DC
:10428000730794F1021713077CF5DB01A21BB30B34
:10429000AA24A394B12CAC0EBD1EAA0DBB1D119671
:1042A0008C9121503109D601119628153905F4F069
:1042B000F60180836D01DBCFB12CA12CA0CFF701DB
:1042C000B1937F01A150AACF9111B0CFD601942F05
:1042D00050E302C05D9391509111FCCFC40ED11CEC
:1042E00040E0ACCF01E0BACF80E3DBCF62177307C9
:1042F00031F4963388F4953311F4552369F0F601BF
:104300008083FD01842F90E2811108C0A40FB11DAC
:104310001C9290E080E002CF81E3F1CF9193815035
:10432000F3CF911183CF8ACF283008F027E03327CD
:10433000DA01990F311D87FD9160009661057105C5
:1043400039F432602E5F3D9330E32A95E1F708950A
:104350009F3F30F080387105610509F03C5F3C5F9C
:104360003D93913008F08068911DDF93CF931F93A8
:104370000F93FF92EF92192F987F9695E92F9695BC
:104380009695E90FFF27EC5BFE4F99273327EE2424
:10439000FF24A701E70105900894079428F4360F3D
:1043A000E71EF81E491F511D660F771F881F991FB2
:1043B0000694A1F70590079428F4E70EF81E491F0C
:1043C000561FC11D770F881F991F661F0694A1F7FE
:1043D0000590079428F4F80E491F561FC71FD11DDA
:1043E000880F991F661F771F0694A1F70590079401
:1043F00020F4490F561FC71FD81F990F661F771F3C
:10440000881F0694A9F784911095177041F0D695EE
:10441000C79557954795F794E7941A95C1F7EAEE33
:10442000F0E06894159015913591659195910590FE
:104430007FE27395E118F10A430B560BC90BD009C3
:10444000C0F7E10CF11E431F561FC91FD01D7EF49B
:10445000703311F48A95E6CFE894015030F0080FDC
:104460000AF40027021708F4202F2395022F7A332D
:1044700028F079E37D932A95E9F710C07D932A957A
:1044800089F6069497956795379517951794E118CF
:10449000F10A430B560BC90BD00998F023957E9176
:1044A00073957A3308F070E37C932013B8F77E910C
:1044B00070617D9330F0839571E37D9370E32A956D
:1044C000E1F71124EF90FF900F911F91CF91DF91B1
:1044D000992787FD9095089591110C944823803277
:1044E00019F089508550C8F708950E94B72208F442
:1044F00081E00895E89409C097FB3EF4909580957B
:10450000709561957F4F8F4F9F4F9923A9F0F92F99
:1045100096E9BB279395F695879577956795B79517
:10452000F111F8CFFAF4BB0F11F460FF1BC06F5FFD
:104530007F4F8F4F9F4F16C0882311F096E911C00F
:10454000772321F09EE8872F762F05C0662371F030
:1045500096E8862F70E060E02AF09A95660F771F44
:10456000881FDAF7880F9695879597F90895990F20
:104570000008550FAA0BE0E8FEEF16161706E8072D
:10458000F907C0F012161306E407F50798F0621B4E
:10459000730B840B950B39F40A2661F0232B242B23
:1045A000252B21F408950A2609F4A140A6958FEF42
:1045B000811D811D08950E94EE220C9462230E94A9
:1045C000542338F00E945B2320F0952311F00C94C3
:1045D0004B230C94512311240C9496230E94732393
:1045E00070F3959FC1F3950F50E0551F629FF00146
:1045F000729FBB27F00DB11D639FAA27F00DB11D5F
:10460000AA1F649F6627B00DA11D661F829F2227E7
:10461000B00DA11D621F739FB00DA11D621F839F6E
:10462000A00D611D221F749F3327A00D611D231F44
:10463000849F600D211D822F762F6A2F11249F5792
:1046400050409AF0F1F088234AF0EE0FFF1FBB1F95
:10465000661F771F881F91505040A9F79E3F510554
:1046600080F00C944B230C9496235F3FE4F3983E28
:10467000D4F3869577956795B795F795E7959F5FFE
:10468000C1F7FE2B880F911D9695879597F9089590
:1046900099278827089597F99F6780E870E060E080
:1046A00008959FEF80EC089500240A9416161706CB
:1046B00018060906089500240A9412161306140613
:1046C00005060895092E0394000C11F4882352F076
:1046D000BB0F40F4BF2B11F460FF04C06F5F7F4F2E
:1046E0008F4F9F4F089557FD9058440F551F59F015
:1046F0005F3F71F04795880F97FB991F61F09F3FCF
:1047000079F087950895121613061406551FF2CFF7
:104710004695F1DF08C0161617061806991FF1CF47
:1047200086957105610508940895E894BB2766276E
:104730007727CB0197F908952F923F924F925F927E
:104740006F927F928F929F92AF92BF92CF92DF92A1
:10475000EF92FF920F931F93CF93DF93CDB7DEB706
:10476000CA1BDB0B0FB6F894DEBF0FBECDBF09949A
:104770002A88398848885F846E847D848C849B84F1
:10478000AA84B984C884DF80EE80FD800C811B81FF
:10479000AA81B981CE0FD11D0FB6F894DEBF0FBE2E
:1047A000CDBFED010895A1E21A2EAA1BBB1BFD018E
:1047B0000DC0AA1FBB1FEE1FFF1FA217B307E40700
:1047C000F50720F0A21BB30BE40BF50B661F771F58
:1047D000881F991F1A9469F7609570958095909538
:1047E0009B01AC01BD01CF010895EE0FFF1F0590A5
:1047F000F491E02D09945058BB27AA270E94132456
:104800000C9462230E94542338F00E945B2320F012
:1048100039F49F3F19F426F40C9451230EF4E095DB
:10482000E7FB0C944B23E92F0E94732358F3BA172C
:10483000620773078407950720F079F4A6F50C94B6
:1048400095230EF4E0950B2EBA2FA02D0B01B90184
:1048500090010C01CA01A0011124FF27591B99F0F6
:10486000593F50F4503E68F11A16F040A22F232F02
:10487000342F4427585FF3CF469537952795A79552
:10488000F0405395C9F77EF41F16BA0B620B730BF9
:10489000840BBAF09150A1F0FF0FBB1F661F771F6A
:1048A000881FC2F70EC0BA0F621F731F841F48F41F
:1048B000879577956795B795F7959E3F08F0B0CFA8
:1048C0009395880F08F09927EE0F9795879508958F
:1048D0000E947C240C9462230E945B2358F00E9467
:1048E000542340F029F45F3F29F00C944B235111DD
:1048F0000C9496230C9451230E94732368F39923FC
:10490000B1F3552391F3951B550BBB27AA276217CB
:104910007307840738F09F5F5F4F220F331F441FD8
:10492000AA1FA9F335D00E2E3AF0E0E832D091500C
:104930005040E695001CCAF72BD0FE2F29D0660FF9
:10494000771F881FBB1F261737074807AB07B0E83C
:1049500009F0BB0B802DBF01FF2793585F4F3AF042
:104960009E3F510578F00C944B230C9496235F3FA7
:10497000E4F3983ED4F3869577956795B795F795C8
:104980009F5FC9F7880F911D9695879597F90895B0
:10499000E1E0660F771F881FBB1F6217730784074C
:1049A000BA0720F0621B730B840BBA0BEE1F88F75B
:1049B000E09508950E947B2388F09F5798F0B92FC7
:1049C0009927B751B0F0E1F0660F771F881F991F44
:1049D0001AF0BA95C9F714C0B13091F00E9495232E
:1049E000B1E008950C949523672F782F8827B85F3E
:1049F00039F0B93FCCF3869577956795B395D9F79C
:104A00003EF490958095709561957F4F8F4F9F4FA5
:104A10000895FA01EE0FFF1F309621053105A1F12F
:104A20006115710561F48038BFE39B0749F1689413
:104A30009038810561F08038BFEF9B0741F09923E2
:104A40004AF5FF3FE1053105210519F1E894089485
:104A5000E795D901AA2329F4AB2FBE2FF85FD0F335
:104A600010C0FF5F70F4A695E0F7F73950F019F029
:104A7000FF3A38F49F779F930DD00F9007FC905822
:104A8000089546F00C94512360E070E080E89FE3C5
:104A900008954FE79F775F934F933F932F930E9423
:104AA00004262F913F914F915F910E94DB220C943D
:104AB000612529F416F00C944B230C9495230C9447
:104AC00051230E947B23A8F39638A0F707F80F9292
:104AD000E8942BE33AEA48EB5FE70E94F1220F9259
:104AE0000F920F924DB75EB70F920E944C26E8E6E8
:104AF000F0E00E9493254F915F91EF91FF91E59532
:104B0000EE1FFF1F49F0FE57E0684427EE0F441FD9
:104B1000FA95E1F74195550B0E94C6250F9007FEC7
:104B20000C94BA250895DF93CF931F930F93FF92B0
:104B3000EF92DF927B018C01689406C0DA2EEF01C0
:104B40000E94EE22FE01E894A591259135914591B0
:104B50005591A6F3EF010E941324FE019701A801CD
:104B6000DA9469F7DF90EF90FF900F911F91CF914A
:104B7000DF9108959B01AC0160E070E080E89FE365
:104B80000C9468240C944B230C9480260E947B2365
:104B9000D8F39923C9F3940F511DA3F391505040BA
:104BA00094F059F0882332F0660F771F881F9150D8
:104BB0005040C1F79E3F51052CF7880F911D9695E7
:104BC000879597F908955F3FACF0983E9CF0BB271E
:104BD000869577956795B79508F4B1609395C1F779
:104BE000BB0F58F711F460FFE8CF6F5F7F4F8F4F17
:104BF0009F4FE3CF0C94962316F00C9480260C94D0
:104C0000512368940C944B230E947B23A8F399238F
:104C1000C1F3AEF3DF93CF931F930F93FF92C92F8E
:104C2000DD2788232AF02197660F771F881FDAF780
:104C300020E030E040E85FEB9FE3883920F0803EE1
:104C400038F021968F770E94FC23E0E9F0E004C061
:104C50000E94FC23EDEBF0E00E9493258B01BE0146
:104C6000EC01FB2E6F5771097595771F880B990B17
:104C70000E947C2228E132E741E35FE30E94EE22BA
:104C8000AF2D9801AE01FF900F911F91CF91DF9151
:104C90000E9413240C946223FA01DC01AA0FBB1FAB
:104CA0009B01AC01BF5728F42227332744275078B3
:104CB00020C0B75190F4AB2F002446953795279527
:104CC000011CA395D2F3002071F0220F331F441F63
:104CD000B395DAF30ED00C94FB2361307105A0E894
:104CE0008A07B94630F49B01AC01662777278827ED
:104CF0009078309621F02083318342835383089546
:104D00009F3F31F0915020F4879577956795B7953F
:104D1000880F911D9695879597F908950F931F9386
:104D2000CF93DF938230910510F482E090E0E09120
:104D30004F03F091500330E020E0B0E0A0E0309766
:104D400099F42115310509F44AC0281B390B243088
:104D50003105D8F58A819B816115710589F1FB01C7
:104D600093838283FE0111C04081518102811381AE
:104D700048175907E0F04817590799F4109761F060
:104D800012960C93129713961C933296CF01DF91D3
:104D9000CF911F910F91089500934F0310935003EB
:104DA000F4CF2115310551F04217530738F0A9010E
:104DB000DB019A01BD01DF01F801C1CFEF01F9CF9D
:104DC0009093500380934F03CDCFFE01E20FF31F6A
:104DD000819391932250310939832883D7CF209131
:104DE0004D0330914E03232B41F420910701309164
:104DF000080130934E0320934D032091050130911B
:104E000006012115310541F42DB73EB74091090146
:104E100050910A01241B350BE0914D03F0914E0394
:104E2000E217F307A0F42E1B3F0B2817390778F081
:104E3000AC014E5F5F4F2417350748F04E0F5F1FE0
:104E400050934E0340934D03819391939FCFF0E095
:104E5000E0E09CCFCF93DF930097E9F0FC0132971D
:104E600013821282A0914F03B0915003ED0130E004
:104E700020E01097A1F420813181820F931F2091AF
:104E80004D0330914E032817390709F061C0F093A4
:104E90004E03E0934D03DF91CF910895EA01CE17C1
:104EA000DF07E8F54A815B819E0141155105B1F7A5
:104EB000E901FB83EA8349915991C40FD51FEC178F
:104EC000FD0761F4808191810296840F951FE901AD
:104ED00099838883828193819B838A83F0E0E0E0D9
:104EE00012968D919C9113970097B9F52D913C9155
:104EF0001197CD010296820F931F20914D0330919F
:104F00004E032817390739F6309751F510925003A0
:104F100010924F03B0934E03A0934D03BCCFD383A5
:104F2000C28340815181840F951FC817D90761F44E
:104F30004E5F5F4F88819981480F591F518340838D
:104F40008A819B81938382832115310509F0B0CF3B
:104F5000F0935003E0934F039ECFFD01DC01C0CFDF
:104F600013821282D7CFB0E0A0E0E9EBF7E20C9415
:104F70009E238C01009751F4CB010E948E268C0158
:104F8000C801CDB7DEB7E0E10C94BA23FC01E60F0F
:104F9000F71F9C0122503109E217F30708F49DC066
:104FA000D901CD91DC911197C617D70798F0C5307C
:104FB000D10530F3CE0104978617970708F3C61B77
:104FC000D70B2297C193D1936D937C93CF010E940D
:104FD0002A27D6CF5B01AC1ABD0A4C018C0E9D1E50
:104FE000A0914F03B0915003512C412CF12CE12C96
:104FF000109731F580914D0390914E0388159905D6
:1050000009F05CC04616570608F058C080910501AB
:1050100090910601009741F48DB79EB74091090128
:1050200050910A01841B950BE817F90708F055C049
:10503000F0934E03E0934D03F90171836083A0CF99
:105040008D919C91119712966C90129713967C906B
:105050001397A815B90559F56C0142E0C40ED11C8F
:10506000CA14DB0420F1AC014A195B09DA0112967B
:10507000159780F06282738251834083D9016D93CA
:105080007C93E114F10471F0D7011396FC93EE9335
:10509000129776CF22968C0F9D1FF9019183808302
:1050A000F301EFCFF0935003E0934F0369CF48161D
:1050B000590608F42C017D01D3019ACFCB010E943F
:1050C0008E267C01009749F0AE01B8010E94752838
:1050D000C8010E942A27870153CF10E000E050CF7B
:1050E00081E090E0F8940C948C28FB01DC0102C074
:1050F00001900D9241505040D8F70895DC0101C055
:105100006D9341505040E0F70895FB01DC010190A0
:105110000D920020E1F7089516E0C1E1D6E004C049
:10512000FE010E94F5232196C231D107C9F7F894F8
:02513000FFCFAF
:10513200010A080A08000051038000000000009CD8
:10514200060B083D06E9066E064C066006000000E6
:10515200005411271108153C0620110D11FE1000F4
:10516200000000DD0C0B0808159710E8093C0682C8
:105172000F5A0F760F6A0FEA0F3C06A30AB21458B1
:1051820009A109A30E860E0E0EAF0D0D0A004D5396
:10519200524D4E5400636D00576865656C20526134
:0851A200646975733A200000F6
:00000001FF
